:1000000001288316860188010F308700091589149D
:100010008515831200308600003088000030B9005A
:100020000030B0000030B4000030B5000830B60039
:100030000530B7000030B1000030B2000030B3002E
:10004000FF30A3002030A4001030A700F820FB20D0
:10005000FE208312031341309F00831603130730E1
:1000600081000E309F000514831203134720A60A57
:1000700027082602031D3628FE204020FE20DB280C
:100080005020A60A27082602031D40280800012147
:10009000A20A24082202031D47285820FB2008003A
:1000A0001C21A20A24082202031D5028FB2008005C
:1000B0000A21031563200B111F151F195D281E0847
:1000C000A800280874285530B100B200B300692098
:1000D0000800B10B69286D200800B20B6D28712053
:1000E0000800B30B71280800D2302802031C7C28BA
:1000F0000930A900C121C728C2302802031C842866
:100100000830A900BE21C728AE302802031C8C2865
:100110000730A900BB21C7289E302802031C942861
:100120000630A900B821C7288A302802031C9C2861
:100130000530A900B521C72875302802031CA42862
:100140000430A900B221C72852302802031CAC2871
:100150000330A900AF21C72833302802031CB4287C
:100160000230A900AC21C7281C302802031CBC287F
:100170000130A900A921C7280030A900A621C7285D
:100180002908B0002108B5002608B400080030088E
:1001900029020318C020A10A23082102031D5828A0
:1001A000F820D32008001321A10A23082102031DEF
:1001B000D328F8200800EB20A60A34082602031DE5
:1001C000DB28FE20E3280A21A10A35082102031DAD
:1001D000E328F82069290121A20A24082202031D2C
:1001E000EB28FB200800A530A500A50BF52808008A
:1001F0000030A10008000030A20008000030A60076
:100200000800312129213921352141213D21452174
:100210002D210800512149215921552161215D21BC
:1002200065214D2108004D2165215D216121552168
:1002300059214921512108002D2145213D214121EC
:1002400035213921292131210800F3202008860099
:1002500008003030A000252108006030A0002521D2
:1002600008007030A000252108009030A000252152
:100270000800B030A00025210800C030A0002521D2
:100280000800D030A00025210800E030A000252182
:1002900008000330A000252108000630A000252119
:1002A00008000730A000252108000930A000252102
:1002B00008000B30A000252108000C30A0002521EB
:1002C00008000D30A000252108000E30A0002521D7
:1002D00008006C21F320692985196F217629B90A54
:1002E0003919732108000030B900080039187C2939
:1002F0007929B91885297F29B918882982293008D0
:10030000B8008B293608B8008B293708B8008B292C
:100310000230B8008B2938189A298E29B8189729E5
:1003200091293819B2299429B819BE29A629381952
:10033000B829AC29B818A3299D293819B529A029AD
:10034000B819C129A9293819BB29AF293F3088001C
:1003500008000630880008005B30880008004F3035
:10036000880008006630880008006D3088000800AA
:100370007D30880008000730880008007F30880042
:08038000080067308800080046
:02400E00713F00
:00000001FF
