:1000000001288316860188018312003086000030A3
:100010008800FF30A4002030A5001030A90049203E
:100020004C204F202220A80A29082802031D12284C
:100030004F201B20BA283C20A80A29082802031DAB
:100040001B28BA285220A30A25082302031D2228B0
:100050002B204C2008005B20A20A24082202031D4A
:100060002B284920342008006420A20A24082202F8
:10007000031D3428492008006D20A30A2508230207
:10008000031D3C284C200800A530A600A60B4628DE
:1000900008000030A20008000030A3000800003073
:1000A000A800080082207A208A20862092208E20B4
:1000B00096207E200800A2209A20AA20A620B22006
:1000C000AE20B6209E2008009E20B620AE20B22092
:1000D000A620AA209A20A22008007E2096208E200A
:1000E000922086208A207A2082200800442021083D
:1000F000860008003030A100762008006030A100A2
:10010000762008007030A100762008009030A10011
:1001100076200800B030A10076200800C030A10091
:1001200076200800D030A10076200800E030A10041
:10013000762008000330A100762008000630A100D8
:10014000762008000730A100762008000930A100C1
:10015000762008000B30A100762008000C30A100AA
:10016000762008000D30A100762008000E30A10096
:0401700076200800ED
:02400E00713F00
:00000001FF
